:060000000A128A110C280F
:10000800FE00030EF1000A08F2000A168A15F32A08
:100018000A128A110F28F801F901FA018312031351
:10002800ED018313CF308400E5300A168A155F206E
:100038000A128A1183010A168A11112983160313D9
:10004800460883120313A30083160313450883127B
:100058000313A20083160313440883120313A10099
:1000680083160313430883120313A0000030A7006C
:100078000030A6000030A5000030A4000A168A153A
:100088003E230A128A1103184A284B282D29831661
:100098000313460883120313DB0083160313450872
:1000A80083120313DA00831603134408831203131D
:1000B800D90083160313430883120313D8000A16C2
:1000C8008A1567250A128A11831203135B085A04DA
:1000D80059045804031D712872282D298316031307
:1000E8003A08803AFF0080307F02031D7D280230E5
:1000F8003902031C802881282D29831603133E0802
:1001080083120313A300831603133D0883120313FA
:10011800A200831603133C0883120313A10083165D
:1001280003133B0883120313A0004030A700893053
:10013800A6007030A5005F30A4000A168A15E325D2
:100148000A128A110318A928AA28B328F730831697
:100158000313B9070318BA0AFF30BA07BB28F830E7
:1001680083160313B9070318BA0AFF30BA07390808
:100178000A128A159D240A128A1183120313480849
:1001880083160313BE008312031347088316031351
:10019800BD0083120313460883160313BC008312A1
:1001A8000313450883160313BB0046088312031381
:1001B800A30083160313450883120313A2008316B2
:1001C8000313440883120313A1008316031343087F
:1001D80083120313A000831603133E08831203132C
:1001E800A700831603133D0883120313A600831682
:1001F80003133C0883120313A500831603133B085B
:1002080083120313A4000A168A1153200A128A11B2
:1002180083120313230883160313C20083120313E4
:10022800220883160313C1008312031321088316BF
:100238000313C00083120313200883160313BF009F
:100248000030C6000030C5000030C4000030C300D4
:10025800932983160313460883120313DB008316BE
:100268000313450883120313DA00831603134408A3
:1002780083120313D900831603134308831203134D
:10028800D8000A168A1567250A128A1183120313E1
:100298005B0883160313C200831203135A088316DC
:1002A8000313C10083120313590883160313C000F4
:1002B80083120313580883160313BF004208F6007D
:1002C8004108F5004008F4003F08F30000300A1622
:1002D8008A1587260A128A11760883160313A30043
:1002E8007508A2007408A1007308A0004608A700BA
:1002F8004508A6004408A5004308A4000A168A1168
:1003080003200A128A11831603132308C600220841
:10031800C5002108C4002008C300B901BA01CA01F8
:10032800CA0A4A08AD0001300310AD0DFF3E031D97
:10033800982903102D0D693E84000A128A150A2097
:100348000A128A11AE000A128A150A200A128A11A4
:10035800AF000A128A150A200A128A11B0000A127E
:100368008A150A200A128A11B10031084202031DB7
:10037800C72930084102031DC7292F084002031D61
:10038800C7292E083F020318CA29CB29CC29D62908
:100398000130AD002D08CA070A304A06031DD529C9
:1003A800D629952903303705AD0000303805AE0051
:1003B8002D082E040319E129E229942A2D30AD00D5
:1003C800490884002D08831380000130AD002D08F2
:1003D800C907942A4A08AD0001300310AD0DFF3E4D
:1003E800031DF12903102D0D693E84000A128A1598
:1003F8000A200A128A1183120313A0000A128A150E
:100408000A200A128A11A1000A128A150A200A1261
:100418008A11A2000A128A150A200A128A11A30058
:1004280083160313420883120313A70083160313CA
:10043800410883120313A60083160313400883128E
:100448000313A500831603133F0883120313A400A4
:100458000A168A1596240A128A118312031323088E
:1004680083160313BE008312031322088316031393
:10047800BD0083120313210883160313BC008312E3
:100488000313200883160313BB00003083120313E1
:10049800B0000030AF000030AE000A30AD00831667
:1004A80003133E0883120313B400831603133D0895
:1004B80083120313B300831603133C088312031338
:1004C800B200831603133B0883120313B1000A1604
:1004D8008A158E230A128A11831203133008831691
:1004E8000313BE00831203132F0883160313BD00E2
:1004F800831203132E0883160313BC0083120313FD
:100508002D0883160313BB003B08303EAD00490895
:1005180084002D08831380000130AD002D08C90721
:100528000130CA024A0A031D9A2A9B2AEE29AF2AD9
:10053800303083160313AD00490884002D08831357
:1005480080000130AD002D08C907FF30B907031836
:10055800BA0AFF30BA073A08803AFF0080307F02B3
:10056800031DB82A013039020318BB2ABC2A9C2A69
:10057800831603134808803AFF0080307F02031D6A
:10058800C72A09304702031CCA2ACB2AD22A0830B4
:1005980083160313AD002D08CA00D82A8316031347
:1005A8004708AD002D08CA004A08AD00AE012D0865
:1005B800C7022E08031CC803C8024A080319E52A03
:1005C800E62AF12A2E30AD00490884002D0883134D
:1005D80080000130AD002D08C9074A080A128A15A3
:1005E8009D240A128A1183120313480883160313E1
:1005F800B50083120313470883160313B40083124C
:100608000313460883160313B30083120313450824
:1006180083160313B200350883120313B20083163E
:100628000313340883120313B1008316031333082A
:1006380083120313B00083160313320883120313C3
:10064800AF0083160313460883120313AE00831604
:100658000313450883120313AD00831603134408DC
:1006680083120313AC008316031343088312031386
:10067800AB000A128A153C210A128A11831203134D
:100688002E08DB002D08DA002C08D9002B08D8002A
:100698000A168A1567250A128A11831203135B0842
:1006A80083160313C200831203135A088316031315
:1006B800C10083120313590883160313C000831261
:1006C8000313580883160313BF006B2C4A08AD00A8
:1006D80001300310AD0DFF3E031D6D2B03102D0DD2
:1006E800693E84000A128A150A200A128A118312A6
:1006F8000313A0000A128A150A200A128A11A100FF
:100708000A128A150A200A128A11A2000A128A15E8
:100718000A200A128A11A3008316031342088312BF
:100728000313A70083160313410883120313A600BB
:1007380083160313400883120313A50083160313BB
:100748003F0883120313A4000A168A1596240A1276
:100758008A1183120313230883160313BE0083121E
:100768000313220883160313BD0083120313210801
:1007780083160313BC008312031320088316031384
:10078800BB00003083120313B0000030AF0000300C
:10079800AE000A30AD00831603133E08831203131C
:1007A800B400831603133D0883120313B3008316A2
:1007B80003133C0883120313B200831603133B0888
:1007C80083120313B1000A168A158E230A128A119E
:1007D80083120313300883160313BE008312031316
:1007E8002F0883160313BD00831203132E088316E4
:1007F8000313BC00831203132D0883160313BB00D5
:100808003B08303EAD00490884002D088313800062
:100818000130AD002D08C9074A08AD0001300310AA
:10082800AD0DFF3E031D132C03102D0D693E8400F2
:100838000A128A150A200A128A1183120313AD00BC
:100848000A128A150A200A128A11AE000A128A159B
:100858000A200A128A11AF000A128A150A200A12FF
:100868008A11B00083160313420883120313B400DD
:1008780083160313410883120313B300831603136B
:10088800400883120313B200831603133F08831230
:100898000313B1000A168A158E230A128A118312CD
:1008A8000313300883160313C200831203132F089F
:1008B80083160313C100831203132E088316031330
:1008C800C000831203132D0883160313BF000130E1
:1008D800CA024A0A031D712C722C6A2B842C3030F0
:1008E800AD00490884002D08831380000130AD0055
:1008F8002D08C907FF30C7070318C80AFF30C80703
:1009080047084804031D892C8A2C732CC52D3608EA
:10091800840083130008AD00840A0008AE002D0887
:10092800BF002E08C0000030C01BFF30C100C2004D
:100938000230AD002D08B607C21FA32CA42CB32C7F
:100948000330B7040030B804BF09C009C109C2099F
:10095800BF0A0319C00A0319C10A0319C20A4708C2
:100968004804031DB82CB92CC72C42084104400484
:100978003F04031DC02CC12CC72C0130C707031826
:10098800C80A0030C807CA01CA0A4A08AD000130BF
:100998000310AD0DFF3E031DCC2C03102D0D693E39
:1009A80084000A128A150A200A128A11AE000A1255
:1009B8008A150A200A128A11AF000A128A150A201B
:1009C8000A128A11B0000A128A150A200A128A111C
:1009D800B10031084202031DFB2C30084102031DFF
:1009E800FB2C2F084002031DFB2C2E083F02031886
:1009F800FE2CFF2C002D0A2D0130AD002D08CA0752
:100A08000A304A06031D092D0A2DC92C4808803AC8
:100A1800803C031D112D47084A020318142D152D7B
:100A2800162D2E2D831603134808803AAD0080300A
:100A38002D02031D212D4A0847020318242D252DB8
:100A48002E2D831603134A08AD00AE012D08C700EA
:100A58002E08C8000330831603133705AD00003095
:100A68003805AE002D082E0403193B2D3C2DB72D5B
:100A78002D30AD00490884002D0883138000013013
:100A8800AD002D08C907B72D003083120313B0003D
:100A98000030AF000030AE000A30AD0083160313FB
:100AA8004708AD0001300310AD0DFF3E031D572D63
:100AB80003102D0D693E84000A128A150A200A12B5
:100AC8008A1183120313A0000A128A150A200A1237
:100AD8008A11A1000A128A150A200A128A11A20094
:100AE8000A128A150A200A128A11A3008316031310
:100AF800420883120313A7008316031341088312C5
:100B08000313A60083160313400883120313A500DA
:100B1800831603133F0883120313A4000A168A15C9
:100B280096240A128A11831203132308B400220898
:100B3800B3002108B2002008B1000A168A158E23D6
:100B48000A128A11831203132D08303E83160313E9
:100B5800AE002E08CA004A08AD00490884002D08D6
:100B680083138000432DFF30C7070318C80AFF30DE
:100B7800C807470A031DC42D480A031DC42DC52DE7
:100B8800482D0130A807FF30280784000A128A156B
:100B98000A200A128A11AD002D08CA004A08031D4E
:100BA800D62DD92D0A168A11542D4908840083138D
:100BB8008001080083120313D8006E305802031C0A
:100BC800E62DE72DF62E3F30AE000030AD000030A8
:100BD800AC000030AB006430A1000030A20058081F
:100BE800C900CA014908A3004A08A4000A168A15C0
:100BF800AD220A128A11831203132108CB00013097
:100C08000310CB0DFF3E031D042E03104B0D7D3E3C
:100C180084000A128A150A200A128A11CC000A12C4
:100C28008A150A200A128A11CD000A128A150A208A
:100C38000A128A11CE000A128A150A200A128A118B
:100C4800CF004F08B2004E08B1004D08B0004C0864
:100C5800AF000A128A153C210A128A118312031363
:100C68002E08D7002D08D6002C08D5002B08D40054
:100C78000A30A1000030A2005808C900CA0149087A
:100C8800F5004A08F6006430F3000030F4000A1654
:100C98008A15EE210A128A11740883120313A4001C
:100CA8007308A3000A168A15AD220A128A11831244
:100CB80003132108CB0001300310CB0DFF3E031DA9
:100CC800602E03104B0D593E84000A128A150A2023
:100CD8000A128A11CC000A128A150A200A128A11ED
:100CE800CD000A128A150A200A128A11CE000A12A9
:100CF8008A150A200A128A11CF004F08AE004E0842
:100D0800AD004D08AC004C08AB005708B2005608BF
:100D1800B1005508B0005408AF000A128A153C21EA
:100D28000A128A11831203132E08D3002D08D20049
:100D38002C08D1002B08D0000A30F3000030F40052
:100D48005808C900CA014908F5004A08F6000A16F9
:100D58008A15EE210A128A11730883120313CB0035
:100D680001300310CB0DFF3E031DB52E03104B0DB4
:100D7800353E84000A128A150A200A128A11CC000C
:100D88000A128A150A200A128A11CD000A128A1537
:100D98000A200A128A11CE000A128A150A200A129B
:100DA8008A11CF004F08AE004E08AD004D08AC00C8
:100DB8004C08AB005308B2005208B1005108B0000B
:100DC8005008AF000A128A153C210A128A118312B0
:100DD80003132E08C8002D08C7002C08C6002B08CE
:100DE800C500EA2F0B305802031CFB2EFC2EA72F40
:100DF8003F30AE000030AD000030AC000030AB003A
:100E08000A30A1000030A2005808C900CA014908E8
:100E1800A3004A08A4000A168A15AD220A128A11EC
:100E2800831203132108CB0001300310CB0DFF3EC2
:100E3800031D192F03104B0D593E84000A128A1501
:100E48000A200A128A11CC000A128A150A200A12EC
:100E58008A11CD000A128A150A200A128A11CE00B8
:100E68000A128A150A200A128A11CF004F08B20006
:100E78004E08B1004D08B0004C08AF000A128A15A0
:100E88003C210A128A11831203132E08D7002D0859
:100E9800D6002C08D5002B08D4000A30F300003007
:100EA800F4005808C900CA014908F5004A08F600C4
:100EB8000A168A15EE210A128A117308831203137F
:100EC800CB0001300310CB0DFF3E031D662F03102E
:100ED8004B0D353E84000A128A150A200A128A111F
:100EE800CC000A128A150A200A128A11CD000A12A9
:100EF8008A150A200A128A11CE000A128A150A20B7
:100F08000A128A11CF004F08AE004E08AD004D08F6
:100F1800AC004C08AB005708B2005608B1005508A1
:100F2800B0005408AF000A128A153C210A128A112F
:100F3800831203132E08C8002D08C7002C08C6000A
:100F48002B08C500EA2F3F30AE000030AD0000305E
:100F5800AC000030AB005808C90001300310C90DBF
:100F6800FF3E031DB22F0310490D353E84000A12BF
:100F78008A150A200A128A11CA000A128A150A203A
:100F88000A128A11CB000A128A150A200A128A113B
:100F9800CC000A128A150A200A128A11CD004D08BF
:100FA800B2004C08B1004B08B0004A08AF000A1262
:100FB8008A153C210A128A11831203132E08C800CD
:100FC8002D08C7002C08C6002B08C5000800F4002F
:100FD800F3013A3074020318F22FF32FFB2F30304D
:100FE8007402031CF82FF92FFB2FF301F30A730C7B
:020FF8000800EF
:10100000FF1B0A2883137F1883170008840A03191B
:10101000FF0A080008308A000408840A82070034A6
:101020000034003480343F34003400342034413400
:1010300000340034C8344234003400347A34443448
:10104000003440341C34463400345034C334473404
:1010500000342434743449348034963418344B3496
:101060002034BC34BE344C3428346B346E344E34AB
:10107000F934023415345034EC347834AD346034FF
:10108000CA34F234493471340034003480343F348B
:10109000CD34CC34CC343D340A34D73423343C34CE
:1010A0006F34123483343A341734B734D13438348B
:1010B000AC34C53427343734BD3437348634353412
:1010C0009534BF34D63433347734CC342B34323483
:1010D0005F34703489343034FF34E634DB342E34FA
:1010E0000834E5343C341E3460344234A2340D34C8
:1010F00001340034003400340A3400340034003445
:101100006434003400340034E834033400340034F0
:101110001034273400340034A034863401340034D1
:10112000403442340F3400348034963498340034E0
:101130000034E134F53405340034CA349A343B3495
:10114000533431343A34203420342034533432345C
:101150003A342034203420342034533433343A3475
:10116000003425342E3432346634203420340034B4
:101170000D342034533431343A34203400340D34B7
:101180002034533432343A342034003425342E346D
:101190003234663456342034003425342E3432341C
:1011A000663456340034203420342534643400341A
:1011BA0000300A168A1559200A128A153430831209
:1011CA000313A100F130A000A00BE928A10BE92824
:1011DA0030300A168A1589200A128A150D308312B0
:1011EA000313A100FB30A000A00BF928A10BF928DA
:1011FA0030300A168A1589200A128A151D30831280
:10120A000313A1009030A000A00B0929A10B092902
:10121A00000030300A168A1589200A128A153830D9
:10122A000A168A1589200A128A150C300A168A1596
:10123A0089200A128A1501300A168A1589200A128B
:10124A008A1506300A168A1589200A128A1502306A
:10125A0083120313A2000430A100B930A000A00B2E
:10126A003429A10B3429A20B34293B290800831203
:10127A0003132E088039B3003308B8002E08B300D0
:10128A003307B4003408BE00AD1F4C294D294E293E
:10129A003E143E0803195229532962293E0A031DA6
:1012AA005729582960290030AE000030AD000030BF
:1012BA00AC000030AB00AD176A290030AE00003038
:1012CA00AD000030AC000030AB0032088039B3000A
:1012DA003308B8063208B3003307B4003408BD0037
:1012EA00B11F782979297A293D143D0803197E29E5
:1012FA007F298E293D0A031D832984298C290030E0
:10130A00B2000030B1000030B0000030AF00B117B9
:10131A0096290030B2000030B1000030B000003031
:10132A00AF003D0803199A299B29A0293E08031DED
:10133A009F29A029A9290030AE000030AD00003055
:10134A00AC000030AB009C2C2B08B3003308F30030
:10135A0031080A168A1529210A128A157408831275
:10136A000313C4007308C3004308B300B401B501F2
:10137A00B6013608BC003508BB003408BA00330889
:10138A00B9004408B300B401B501B6013608C20079
:10139A003508C1003408C0003308BF002C08B30068
:1013AA003308F30030080A168A1529210A128A1509
:1013BA00740883120313C4007308C3004308B300FC
:1013CA00B401B501B6013308B9073408031103188B
:1013DA00013E0319F129BA07350803110318013E22
:1013EA000319F829BB07360803110318013E03192C
:1013FA00FF29BC074408B300B401B501B60133089C
:10140A00BF07340803110318013E03190D2AC00748
:10141A00350803110318013E0319142AC1073608B7
:10142A0003110318013E03191B2AC2072D08B30032
:10143A003308F3002F080A168A1529210A128A1579
:10144A00740883120313C4007308C3004308B3006B
:10145A00B401B501B6013308B907340803110318FA
:10146A00013E0319392ABA07350803110318013E48
:10147A000319402ABB07360803110318013E031952
:10148A00472ABC074408B300B401B501B6013308C2
:10149A00BF07340803110318013E0319552AC00770
:1014AA00350803110318013E03195C2AC1073608DF
:1014BA0003110318013E0319632AC2070830B30057
:1014CA000310B90DBA0DBB0DBC0DB30B652A2C0860
:1014DA00B3003308F3002F080A168A1529210A12C5
:1014EA008A15740883120313C4007308C3004308DF
:1014FA00B3004408B400B501B6013308B90734088B
:10150A0003110318013E03198B2ABA073508031180
:10151A000318013E0319922ABB0736080311031860
:10152A00013E0319992ABC072B08B3003308F300BC
:10153A0030080A168A1529210A128A157408831294
:10154A000313C4007308C3004308B3004408B4007B
:10155A00B501B6013308B907340803110318013E6F
:10156A000319B82ABA07350803110318013E0319EB
:10157A00BF2ABB07360803110318013E0319C62AFE
:10158A00BC070830B3000310B90DBA0DBB0DBC0D72
:10159A00B30BC82A2B08B3003308F3002F080A1626
:1015AA008A1529210A128A15740883120313C400A2
:1015BA007308C3004308B3004408B400B501B60178
:1015CA003308B907340803110318013E0319EE2A38
:1015DA00BA07350803110318013E0319F52ABB0798
:1015EA00360803110318013E0319FC2ABC072C080C
:1015FA00B3003308F30031080A168A1529210A12A2
:10160A008A15740883120313C4007308C3004308BD
:10161A00B3004408B400B501B6013308BF07340863
:10162A0003110318013E03191B2BC00735080311C8
:10163A000318013E0319222BC107360803110318A8
:10164A00013E0319292BC2072D08B3003308F30002
:10165A0030080A168A1529210A128A157408831273
:10166A000313C4007308C3004308B3004408B4005A
:10167A00B501B6013308BF07340803110318013E48
:10168A000319482BC007350803110318013E031933
:10169A004F2BC107360803110318013E0319562BB5
:1016AA00C2072D08B3003308F30031080A168A1559
:1016BA0029210A128A15740883120313C4007308B5
:1016CA00C3004308B3004408B400B501B6010830AA
:1016DA000310B30DB40DB50DB60DFF3E031D6D2BF2
:1016EA003308BF07340803110318013E03197E2B80
:1016FA00C007350803110318013E0319852BC107DA
:10170A00360803110318013E03198C2BC207390846
:10171A00B3003A08B4003B08B5003C08B6001830DC
:10172A000310B60CB50CB40CB30CFF3E031D952B7D
:10173A003308BF07340803110318013E0319A62B07
:10174A00C007350803110318013E0319AD2BC10761
:10175A00360803110318013E0319B42BC2070830D7
:10176A00B3000310B90DBA0DBB0DBC0DB30BB62BEC
:10177A003E083D07B300B401B40D3308823EC300EE
:10178A0034080318013EFF3EC400E82B0130B300C1
:10179A000310BF0DC00DC10DC20DB30BCD2BBC1F65
:1017AA00D72BD82BD92B3F140130B3000310B90D16
:1017BA00BA0DBB0DBC0DB30BDB2BFF30C3070318EF
:1017CA00C40AFF30C407C11FEB2BEC2BCB2BBD0186
:1017DA00BC1FF02BF12B0D2CFF303905B300FF3065
:1017EA003A05B400FF303B05B5007F303C05B60032
:1017FA0036083504340433040319042C052C082C48
:10180A00BD01BD0A0D2C3F1C0B2C0C2C0D2C052CDC
:10181A003D080319112C122C432C0130BF0700304C
:10182A0003180130C007003003180130C107003027
:10183A0003180130C207421C232C242C432C3F08D6
:10184A00B3004008B4004108B5004208B6000130B0
:10185A00B700360DB60CB50CB40CB30CB70B2E2C66
:10186A003608C2003508C1003408C0003308BF007A
:10187A000130C3070318C40A0030C4074408803A79
:10188A00FF0080307F02031D4C2CFF304302031CF3
:10189A004F2C502C5B2C7F3083120313C2008030F4
:1018AA00C1000030C0000030BF00902C8312031327
:1018BA004408803AFF0080307F02031D662C013005
:1018CA0043020318692C6A2C762C00308312031306
:1018DA00C2000030C1000030C0000030BF00B801B3
:1018EA00902C831203134308B3003308BE00FF3061
:1018FA00BF05FF30C0057F30C1050030C2053E1C60
:10190A00872C882C892CC1173E08B3000310330C8E
:10191A00B4003408C2003808B3003308C2044208CD
:10192A00AE004108AD004008AC003F08AB0008001B
:10193A0083120313D700D71FA32CA42C532ED70925
:10194A00D70A5708803A123E031CAC2CAD2C972DAF
:10195A000A30A2000030A3005708F500F601F51B73
:10196A00F6036430F3000030F4000A168A153B24AB
:10197A000A128A15740883120313A5007308A400B7
:10198A000A168A15FE240A128A15831203132208DC
:10199A00C90001300310C90DFF3E031DCF2C0310EF
:1019AA00490D593E84000A128A150A200A128A151C
:1019BA00CA000A128A150A200A128A15CB000A12CC
:1019CA008A150A200A128A15CC000A128A150A20D8
:1019DA000A128A15CD004D08AE004C08AD004B081E
:1019EA00AC004A08AB006430A2000030A3005708DC
:1019FA00A400A501A41BA5030A168A15FE240A122F
:101A0A008A15831203132208CE0001300310CE0D6B
:101A1A00FF3E031D0B2D03104E0D7D3E84000A125E
:101A2A008A150A200A128A15CF000A128A150A2074
:101A3A000A128A15D0000A128A150A200A128A1571
:101A4A00D1000A128A150A200A128A15D2005208EF
:101A5A00B2005108B1005008B0004F08AF000A1296
:101A6A008A153C210A128A15831203132E08D600FE
:101A7A002D08D5002C08D4002B08D3000A30F30017
:101A8A000030F4005708F500F601F51BF6030A16B4
:101A9A008A153B240A128A15730883120313C90094
:101AAA0001300310C90DFF3E031D562D0310490DC9
:101ABA00353E84000A128A150A200A128A15CA00BB
:101ACA000A128A150A200A128A15CB000A128A15E6
:101ADA000A200A128A15CC000A128A150A200A124A
:101AEA008A15CD004D08AE004C08AD004B08AC007D
:101AFA004A08AB005608B2005508B1005408B000B5
:101B0A005308AF000A128A153C210A128A15831259
:101B1A0003132E08C8002D08C7002C08C6002B087E
:101B2A00C500FF2F5708803A753E031C9D2D9E2D38
:101B3A00262E0A30F3000030F4005708F500F601AB
:101B4A00F51BF6030A168A153B240A128A1573082E
:101B5A0083120313C90001300310C90DFF3E031D90
:101B6A00B12D0310490D353E84000A128A150A2048
:101B7A000A128A15CA000A128A150A200A128A1536
:101B8A00CB000A128A150A200A128A15CC000A12F8
:101B9A008A150A200A128A15CD004D08AE004C0893
:101BAA00AD004B08AC004A08AB000A30A200003076
:101BBA00A3005708A400A501A41BA5030A168A15A9
:101BCA00FE240A128A15831203132208CE0001305A
:101BDA000310CE0DFF3E031DED2D03104E0D593E91
:101BEA0084000A128A150A200A128A15CF000A12DC
:101BFA008A150A200A128A15D0000A128A150A20A2
:101C0A000A128A15D1000A128A150A200A128A159E
:101C1A00D2005208B2005108B1005008B0004F0873
:101C2A00AF000A128A153C210A128A15831203137D
:101C3A002E08C8002D08C7002C08C6002B08C500AE
:101C4A00FF2F5708C90001300310C90DFF3E031DBD
:101C5A00292E0310490D353E84000A128A150A20DE
:101C6A000A128A15CA000A128A150A200A128A1545
:101C7A00CB000A128A150A200A128A15CC000A1207
:101C8A008A150A200A128A15CD004D08C8004C0888
:101C9A00C7004B08C6004A08C500FF2F5708803AFC
:101CAA00123E031C592E5A2E442F0A30A20000302D
:101CBA00A3005708F500F601F51BF6036430F3009C
:101CCA000030F4000A168A153B240A128A15740891
:101CDA0083120313A5007308A4000A168A15FE24AA
:101CEA000A128A15831203132208C900013003104D
:101CFA00C90DFF3E031D7C2E0310490D253E8400AD
:101D0A000A128A150A200A128A15CA000A128A15A4
:101D1A000A200A128A15CB000A128A150A200A1208
:101D2A008A15CC000A128A150A200A128A15CD00D1
:101D3A004D08AE004C08AD004B08AC004A08AB0099
:101D4A006430A2000030A3005708A400A501A41B18
:101D5A00A5030A168A15FE240A128A15831203138A
:101D6A002208CE0001300310CE0DFF3E031DB82E0F
:101D7A0003104E0D493E84000A128A150A200A12DF
:101D8A008A15CF000A128A150A200A128A15D0006B
:101D9A000A128A150A200A128A15D1000A128A150D
:101DAA000A200A128A15D2005208B2005108B1005C
:101DBA005008B0004F08AF000A128A153C210A12D7
:101DCA008A15831203132E08D6002D08D5002C0875
:101DDA00D4002B08D3000A30F3000030F40057086F
:101DEA00F500F601F51BF6030A168A153B240A12BA
:101DFA008A15730883120313C90001300310C90D31
:101E0A00FF3E031D032F0310490D013E84000A12F1
:101E1A008A150A200A128A15CA000A128A150A2085
:101E2A000A128A15CB000A128A150A200A128A1582
:101E3A00CC000A128A150A200A128A15CD004D080A
:101E4A00AE004C08AD004B08AC004A08AB0056087F
:101E5A00B2005508B1005408B0005308AF000A1286
:101E6A008A153C210A128A15831203132E08C80008
:101E7A002D08C7002C08C6002B08C500FF2F5708DD
:101E8A00803A753E031C4A2F4B2FD32F0A30F3009A
:101E9A000030F4005708F500F601F51BF6030A16A0
:101EAA008A153B240A128A15730883120313C90080
:101EBA0001300310C90DFF3E031D5E2F0310490DAB
:101ECA00013E84000A128A150A200A128A15CA00DB
:101EDA000A128A150A200A128A15CB000A128A15D2
:101EEA000A200A128A15CC000A128A150A200A1236
:101EFA008A15CD004D08AE004C08AD004B08AC0069
:101F0A004A08AB000A30A2000030A3005708A40018
:101F1A00A501A41BA5030A168A15FE240A128A150E
:101F2A00831203132208CE0001300310CE0DFF3EA8
:101F3A00031D9A2F03104E0D253E84000A128A159E
:101F4A000A200A128A15CF000A128A150A200A12D2
:101F5A008A15D0000A128A150A200A128A15D10097
:101F6A000A128A150A200A128A15D2005208B200E9
:101F7A005108B1005008B0004F08AF000A128A1584
:101F8A003C210A128A15831203132E08C8002D0851
:101F9A00C7002C08C6002B08C500FF2F5708C90028
:101FAA0001300310C90DFF3E031DD62F0310490D42
:101FBA00013E84000A128A150A200A128A15CA00EA
:101FCA000A128A150A200A128A15CB000A128A15E1
:101FDA000A200A128A15CC000A128A150A200A1245
:101FEA008A15CD004D08C8004C08C7004B08C6002A
:061FFA004A08C5000800C2
:10200600803083160313A306270883120313DC000C
:1020160083160313260883120313DB0083160313A8
:10202600250883120313DA00831603132408831288
:102036000313D90083160313230883120313E00046
:1020460083160313220883120313DF008316031378
:10205600210883120313DE0083160313200883125C
:102066000313DD000A168A11C2220A168A11831288
:1020760003135C0883160313A300831203135B0880
:1020860083160313A200831203135A08831603133D
:10209600A10083120313590883160313A000080036
:1020A600031083120313220D230DF3007308AD00F2
:1020B6002D08031D5F28602869280030A300003022
:1020C600A2000030A1000030A00010290310260D48
:1020D600270DF3007308AC002C08031D7328742821
:1020E60075286028A217FF30A005FF30A105FF3034
:1020F600A2050030A305A617FF30A405FF30A505ED
:10210600FF30A6050030A7050030AB000030AA005E
:102116000030A9000030A8007F30AD02A0302C07A7
:10212600F3007308AD022030F3007308AC000130F1
:10213600F3000310A80DA90DAA0DAB0DF30B9C28F7
:1021460027082302031DB12826082202031DB128F1
:1021560025082102031DB12824082002031CB428E7
:10216600B528C4282408A0022508031C250FA102AF
:102176002608031C260FA2022708031C270FA3020A
:1021860028140130F3000310A00DA10DA20DA30D1C
:10219600F30BC6280130AC02031DD228D3289A2897
:1021A600AD1FD628D728F1282D08803A9F3E031860
:1021B600DD28DE28DF28602801300310AB0CAA0CCE
:1021C600A90CA80CFF3E031DE0280130F30073089C
:1021D600AD07031DEF28F028DF28082920302D023F
:1021E600031CF628F728032960280130F3000310A2
:1021F600A80DA90DAA0DAB0DF30BFA280130AD02FF
:102206002D08031D07290829F8282B08A3002A08EA
:10221600A2002908A1002808A00008000A168A15AD
:102226002A220A168A118316031388010A168A15AA
:102236007C200A168A11F701F70A01300A168A1558
:10224600DD200A168A11913083120313A000803014
:10225600A1000A168A1567220A168A110A168A1515
:10226600BD200A168A113C3083120313AE00A0303B
:10227600AD00A530AC002730AB00780883160313F9
:10228600CB00CC01CD01CE014E08F6004D08F5007D
:102296004C08F4004B08F30001300A168A1587260D
:1022A6000A168A11760883120313B2007508B10064
:1022B6007408B0007308AF000A128A153C210A168A
:1022C6008A11831203132E0883160313D600831272
:1022D60003132D0883160313D500831203132C084A
:1022E60083160313D400831203132B0883160313D8
:1022F600D3003C3083120313AE00A030AD00A530EE
:10230600AC002730AB00831603135A08CB00CC0170
:10231600CD01CE014E08F6004D08F5004C08F4003C
:102326004B08F30001300A168A1587260A168A1109
:10233600760883120313B2007508B1007408B00062
:102346007308AF000A128A153C210A168A118312F5
:1023560003132E0883160313D200831203132D08CA
:1023660083160313D100831203132C088316031359
:10237600D000831203132B0883160313CF005908CA
:102386000A168A15E4230A168A11F701F70A02309B
:102396000A168A15DD200A168A11B730831603132A
:1023A600CB004B08A8005608AC005508AB005408F3
:1023B600AA005308A900E0300A168A114A250A160F
:1023C6008A11E03083120313A0000030A1000A1620
:1023D6008A1567220A168A11BE3083160313CB00AC
:1023E6004B08A8005208AC005108AB005008AA00E0
:1023F6004F08A900E0300A168A114A250A168A11E2
:10240600E03083120313A0000030A1000A168A15DB
:1024160067220A168A11C43083160313CB004B08B1
:10242600A8007A08CC00CD014C08A9004D08AA00E6
:10243600E0300A168A114A250A168A11E0308312FC
:102446000313A0000030A1000A168A1567220A1697
:102456008A11C63083160313CB004B08A8008312DB
:1024660003136D0883160313CC00CD014C08A90095
:102476004D08AA00E0300A168A114A250A168A1162
:10248600E03083120313A0000030A1000A168A155B
:1024960067220A168A11C63083160313CB004B082F
:1024A600A8005F08CC00CD014C08A9004D08AA0081
:1024B600E0300A168A114A250A168A11E03083127C
:1024C6000313A0000030A1000A168A1567220A1617
:1024D6008A11831603135703031D722A732A31299F
:1024E600D701A230CB004B08A8005608AC0055080F
:1024F600AB005408AA005308A900E0300A168A1156
:102506004A250A168A11A930F4008030F5000A1609
:102516008A1503210A168A11E030F4000030F5000E
:102526000A168A1503210A168A11A2308316031386
:10253600CB004B08A8005208AC005108AB0050086D
:10254600AA004F08A900E0300A168A114A250A1681
:102556008A11B030F4008030F5000A168A1503217E
:102566000A168A11E030F4000030F5000A168A15C2
:1025760003210A168A1131290A128A110C2883129C
:1025860003135C088039E1006108E9005C08E1009A
:102596006107E2006208EB00DB1FD22AD32AD42AA5
:1025A6006B146B080319D82AD92AE92A6B0A031D6A
:1025B600DD2ADE2AE62A0030DC000030DB000030AF
:1025C600DA000030D900DB17DC01F12A0030DC002C
:1025D6000030DB000030DA000030D90060088039B6
:1025E600E1006108EA006A0869060319FB2AFC2A69
:1025F600FD2A69176008E1006107E2006208EA0047
:10260600DF1F062B072B082B6A146A0803190C2BED
:102616000D2B1D2B6A0A031D112B122B1A2B0030B2
:10262600E0000030DF000030DE000030DD00DF17A4
:10263600E001252B0030E0000030DF000030DE0036
:102646000030DD006B086A0203182A2B2B2B6F2B38
:10265600691F2E2B2F2B332B8030E1006108E906F2
:102666006B08E1006108EC006A08E1006108EB0014
:102676006C08E1006108EA005908E1006108EC0015
:102686005D08E1006108D9006C08E1006108DD0021
:102696005A08E1006108EC005E08E1006108DA0012
:1026A6006C08E1006108DE005B08E1006108EC00EF
:1026B6005F08E1006108DB006C08E1006108DF00EB
:1026C6005C08E1006108EC006008E1006108DC00DC
:1026D6006C08E1006108E000EC016A08E100E20133
:1026E6006208E4006B086102E300031CE40364086B
:1026F600803AFF0080307F02031D832B1A3063026D
:10270600031C862B872BC42B831203135C085B04E4
:102716005A045904031D902B922B0130932B003041
:10272600E1006108EC000030DC000030DB00003026
:10273600DA000030D9006A08E1006108EB00CC2B12
:102746006C1CA62BA72BB02B6C08E1000310610CA8
:102756000138E2006208EC00B22B0310EC0C591CA5
:10276600B52BB62BB72BEC170130E1005C0DDC0C5A
:10277600DB0CDA0CD90CE10BB92B0130E100610856
:10278600EB07831203136A086B02031CCB2BCC2BBB
:10279600A32B691BCF2BD02B1B2C6B08031DD42B13
:1027A600D52BDE2B0030DC000030DB000030DA00F9
:1027B6000030D900492D5D08D9075E0803110318BA
:1027C600013E0319E72BDA075F0803110318013EE0
:1027D6000319EE2BDB07600803110318013E0319EA
:1027E600F52BDC075C1CF82BF92BCF2C6C1CFC2B77
:1027F600FD2B062C6C08E1000310610C0138E20089
:102806006208EC00082C0310EC0C591C0B2C0C2C49
:102816000D2CEC170130E1005C0DDC0CDB0CDA0C46
:10282600D90CE10B0F2C0130E1006108EB07CF2C2E
:102836005C08803AFF006008803A7F02031D2D2C59
:102846005F085B02031D2D2C5E085A02031D2D2C0A
:102856005D0859020318302C312C892CFF30E10019
:10286600FF30E200FF30E300FF30E4005D08E500E2
:102876005E08E6005F08E7006008E8005908E50220
:102886005A08031C5A0F482C492CE6025B08031C05
:102896005B0F4E2C4F2CE7025C08031C5C0F542C7C
:1028A600552CE8026508E10766080318660F5C2CDC
:1028B6005D2CE20767080318670F622C632CE30799
:1028C60068080318680AE4076408DC006308DB008C
:1028D6006208DA006108D9008030E1006108E90683
:1028E600EC09EC0A6C08031D792C7A2C972C013024
:1028F600D907003003180130DA0700300318013019
:10290600DB07003003180130DC07972C5D08D9027D
:102916005E08031C5E0FDA025F08031C5F0FDB0212
:102926006008031C600FDC025C085B045A0459044F
:10293600031D9E2C9F2CCB2C6C08031DA32CA42CB2
:10294600CB2C0030DC000030DB000030DA00003039
:10295600D900492D0130E1000310D90DDA0DDB0D48
:10296600DC0DE10BAF2CEC1FB92CBA2CBB2C591487
:102976006C1CBE2CBF2CC22C0314EC0DC42C0310F3
:10298600EC0D6B080319C82CC92CCB2C0130EB02BB
:10299600DB1FCE2CCF2CAD2CEA01EC1FD32CD42C74
:1029A600E22C6C087F390319D92CDA2CDD2CEA01CC
:1029B600EA0AE22C591CE02CE12CE22CDA2C6A08FB
:1029C6000319E62CE72C1B2D0130D907003003181C
:1029D6000130DA07003003180130DB070030031836
:1029E6000130DC075C1CF82CF92C1B2D5908E10082
:1029F6005A08E2005B08E3005C08E4000130E500E9
:102A0600640DE40CE30CE20CE10CE50B032D640809
:102A1600DC006308DB006208DA006108D9006B0A93
:102A26000319162D172D1B2D0130E1006108EB0748
:102A36006B0A03191F2D202D252D6B08031D242D30
:102A4600252D332D0030DC000030DB000030DA00AD
:102A56000030D9006B08031D312D322D332DE901CD
:102A66006B1C362D372D392DDB173D2D7F30E100C0
:102A76006108DB056B08E1000310610CE2006208E7
:102A8600DC00E91F472D482D492DDC170800831669
:102A96000313C900A930AD002D08B6000A128A1129
:102AA600C52D25304A060319592D5A2D662D4A087B
:102AB600AD00490884002D08831380000130AD0065
:102AC6002D08C907512DB701B801280884000A123C
:102AD6008A150A200A168A112E3A031D732D742DA3
:102AE600B92D38170130AD002D08A807C701C80158
:102AF600A82D0A30F3000030F400831603134808AB
:102B0600F6004708F5000A168A1552210A168A1198
:102B1600740883160313C8007308C70028088400C6
:102B26000A128A150A200A168A11D03EAD00FF3015
:102B360003180030AE002D08C7070318C80A2E0870
:102B4600C8070130AD002D08A807280884000A121E
:102B56008A150A200A168A110A128A11EB270A1602
:102B66008A110318B72DB82D7C2DBF2DC701C801BA
:102B76003816BF2D3815E12D013083160313A8072B
:102B8600FF30280784000A128A150A200A168A11BD
:102B9600CA00AD00AE012E08003A0319D32D512DFF
:102BA6002D08003A0319FD2F643A0319E12D023A64
:102BB6000319BD2D0F3A0319E12D512D00303705AC
:102BC600AD0007303805AE002D082E040319EC2D94
:102BD600EF2D0A128A118B2C381EF22DF32DF72DAC
:102BE6000630C7000030C80036088400831300088A
:102BF600C300840A0008C400840A0008C500840AC9
:102C06000008C6000430AD002D08B607460883123A
:102C16000313A30083160313450883120313A200AC
:102C260083160313440883120313A10083160313A8
:102C3600430883120313A0000030A7000030A6004B
:102C46000030A5000030A4000A168A15E3250A16EE
:102C56008A1103182F2E302E4D2E83160313460885
:102C6600F6004508F5004408F4004308F3000A1688
:102C76008A1571200A168A11760883160313C60070
:102C86007508C5007408C4007308C3000330B70490
:102C96000030B80483160313B901BA01460883123B
:102CA6000313A30083160313450883120313A2001C
:102CB60083160313440883120313A1008316031318
:102CC600430883120313A0000030A7000030A600BB
:102CD6000030A5000030A4000A168A153E230A1605
:102CE6008A110318772E782E942F03108316031358
:102CF600450D460D823EB900FF3003180030BA007C
:102D0600FF30B9070318BA0AFF30BA070330F300D9
:102D16000030F4003A08F6003908F5000A168A155C
:102D260052210A168A11740883160313BA0073080F
:102D3600B9000A3083120313A2000030A3008316E1
:102D460003133A0883120313A500831603133908E5
:102D560083120313A4000A168A15FE240A168A1182
:102D660083120313230883160313BA008312031373
:102D7600220883160313B900BA1FC22EC32EC92E0A
:102D8600FF30B9070318BA0AFF30BA073903FF3A0A
:102D96000A128A159D240A168A11831203134808FB
:102DA60083160313BE008312031347088316031307
:102DB600BD0083120313460883160313BC00831257
:102DC6000313450883160313BB0046088312031337
:102DD600AE0083160313450883120313AD00831652
:102DE6000313440883120313AC008316031343082A
:102DF60083120313AB00831603133E0883120313D7
:102E0600B200831603133D0883120313B100831621
:102E160003133C0883120313B000831603133B0805
:102E260083120313AF000A128A153C210A168A116F
:102E3600831203132E0883160313BE008312031393
:102E46002D0883160313BD00831203132C08831663
:102E56000313BC00831203132B0883160313BB0052
:102E66003E0883120313A300831603133D0883123F
:102E76000313A200831603133C0883120313A10055
:102E8600831603133B0883120313A0003F30A700E9
:102E96008030A6000030A5000030A4000A168A156E
:102EA600E3250A168A110318592F5A2F632FFF306C
:102EB60083160313B9070318BA0AFF30BA07942F0B
:102EC600831603133E0883120313A300831603130A
:102ED6003D0883120313A200831603133C088312D2
:102EE6000313A100831603133B0883120313A000E8
:102EF6004130A7002030A6000030A5000030A40015
:102F06000A168A15E3250A168A11031C8B2F8C2FA5
:102F1600942F013083160313B9070318BA0A003039
:102F2600BA07831603134808803AFF0080307F02F1
:102F3600031D9F2F0D3047020318A22FA32FEA2F40
:102F46008316031347080A128A11DE250A168A1108
:102F5600831203134808DC004708DB004608DA0042
:102F66004508D90083160313460883120313E000AD
:102F760083160313450883120313DF008316031316
:102F8600440883120313DE008316031343088312D7
:102F96000313DD000A168A11C2220A168A11831249
:102FA60003135C0883160313C600831203135B081E
:102FB60083160313C500831203135A0883160313DB
:102FC600C40083120313590883160313C300831620
:102FD60003133A08803AFF0080307F02031DF52F65
:102FE6000A3039020318FA2F0A128A1122280A1205
:0A2FF6008A1181280A128A11D92DD0
:1030B200F300730883120313880008006400800180
:1030C200840A04060319003404066028F3008312FC
:1030D20003130C1E6D286E286828730899000800D7
:1030E20076087504740473040319782879287B28F8
:1030F2008030F606080000300A168A1589200A1662
:103102008A1501300A168A1589200A168A150800BE
:10311200F60083120313061076080A168A15592040
:103122000A168A158312031386140B30F5006230D7
:10313200F400F40B9A28F50B9A280000831203136B
:1031420086100800F60083120313061476080A1686
:103152008A1559200A168A158312031386146830B9
:10316200F500E430F400F40BB428F50BB4280000A9
:103172008312031386100800831203139F18C228B8
:10318200C328DC281F0CF300730C0F39063A031D09
:10319200CB28CC28D1281F08C33914389F00D52842
:1031A2001F08C33918389F002130F300F30BD728CA
:1031B200831203139F14080083120313A100210337
:1031C200031DE428E528F12877087F3EA0002008A7
:1031D200A20022080A168A1589200A168A150229CF
:1031E20002302106031DF628F72802297708BF3E80
:1031F200A0002008A20022080A168A1589200A16B1
:103202008A15080018297508FF00740884000A123C
:103212008A1500200A168A150A168A1567200A16C8
:103222008A150130F4070318F50A0030F50775080E
:1032320083120313FF00740884000A128A15002007
:103242000A168A15003A031D27292829042908008D
:1032520083120313A400A001A1017308F500F60173
:103262007508A2007608A300241C382939293F29B1
:103272002208A0070318A10A2308A107013003109E
:10328200A20DA30DFF3E031D40290310A40C240828
:10329200031D4C294D2935292108F4002008F3008B
:1032A200080083120313A001A101731C59295A2992
:1032B2006229750883120313A0070318A10A76086E
:1032C200A10701300310F50DF60DFF3E031D632922
:1032D20001300310F40CF30CFF3E031D6A2973083E
:1032E2007404031D752976295629831203132108B4
:1032F200F4002008F3000800831603139F131F1223
:103302009F12831203131F08C33914389F001F141E
:103312002130F500F50B8B29A1293F3083120313CD
:103322009F05B129831203131F083F3940389F00BC
:10333200B129831203131F083F3980389F00B12936
:103342007408003A0319A629B1297308013A03192E
:103352008E29053A031993290C3A03199A29B1299E
:1033620008008316031318128312031398171813F5
:103372001816831603139816831203130C1283165E
:1033820003130C1218138312031318119810E02957
:103392008316031318158316031787111930831622
:1033A200031399009A01ED2983160313181183164A
:1033B200031787110C30831603139900D32974085D
:1033C200003A0319E529ED297308043A0319C929BA
:1033D2000C3A0319D529ED2908007308740403195E
:1033E200F329F429252A83120313A001A00A042A2F
:1033F20001300310F30DF40DFF3E031DFA290130D5
:10340200F7007708A007F41F072A082AF929740889
:103412007602031D0E2A73087502031C112A122A52
:10342200182A7308F5027408031CF603F602013029
:103432000310F40CF30CFF3E031D192A0130A00205
:10344200031D242A252A082A7608F4007508F300A9
:10345200080030308316031788008901831603138E
:1034620085018801860107308900831203138601D2
:103472008501880189017030831603138F040F14AC
:103482000830F3000030F4000A168A157D210A166E
:103492008A150830F3000030F4000A168A15B221AA
:1034A2000A168A150A128A15DD200A168A1583124F
:1034B20003138C12831603138C16831203130C133B
:1034C200831603130C170B178B17080083120313B1
:1034D200A501A601902A25082007A3002108A20021
:1034E2000318A20AA51F762AA20383120313220835
:1034F200A4002408FF00230884000A128A15002071
:103502000A168A150A168A15A3200A168A15013088
:1035120083120313A5070318A60A0030A60725087D
:103522002007A3002108A2000318A20AA51F9A2AB5
:10353200A203831203132208A4002408FF00230815
:1035420084000A128A1500200A168A15003A031D01
:10355200AB2AAC2A6C2A080083120313A701A80124
:10356200210822040319B62AB72AEE2AA601A60ABE
:10357200C52A01300310A10DA20DFF3E031DBB2A77
:103582000130A5002508A607A21FC82AC92ABA2AFF
:1035920001300310A70DA80DFF3E031DCA2A220801
:1035A2002402031DD62A21082302031CD92ADA2A5F
:1035B200E12A2108A3022208031CA403A40227145F
:1035C20001300310A20CA10CFF3E031DE22A0130C0
:1035D200A602031DED2AEE2AC92A2808A2002708FE
:1035E200A1000800831203130C1FF82AF92A0F2BDB
:1035F2001F0CF000700C0F39063A031D012B022B31
:10360200072B1E08F0007008F8000D2B1E08F000B2
:10361200700883160313DA0083120C138C1E122B0C
:10362200132B372B2B301A06031D182B192B202B8B
:103632000130F000700883160313D907352B2D30A3
:103642001A06031D252B262B2B2B01308316031361
:10365200D902352B61301A06031D302B312B352B45
:1036620083160313D701D70A83128C1272088A00B9
:10367200710E8300FE0E7E0E0900003083120313CA
:103682002005F30000302105F40080302205F5000A
:103692007F302305F6007608750474047304031D55
:1036A200532B542B5C2B0030A3000030A2000030BF
:1036B200A1000030A00000302405F30000302505F1
:1036C200F40080302605F5007F302705F6007608E5
:1036D200750474047304031D6F2B702B782B003058
:1036E200A7000030A6000030A5000030A400270883
:1036F2002306031D862B26082206031D862B25087A
:103702002106031D862B240820060319892B8A2BE8
:103712008C2B03108D2B0314080083120313300823
:103722002F042E042D040319972B982BDB2BF50164
:10373200F50AA82B0130F4000310AD0DAE0DAF0D4C
:10374200B00DF40B9D2B0130F4007408F507B01F87
:10375200AB2BAC2B9B2B30083402031DBA2B2F084A
:103762003302031DBA2B2E083202031DBA2B2D0879
:103772003102031CBD2BBE2BCC2B2D08B1022E080F
:10378200031C2E0FB2022F08031C2F0FB3023008A6
:10379200031C300FB40201300310B00CAF0CAE0C9E
:1037A200AD0CFF3E031DCD2B0130F502031DDA2BBC
:1037B200DB2BAC2B3408B0003308AF003208AE006C
:1037C2003108AD00080083120313AE006430A2007A
:1037D2000030A3002E08AB00AC012B08A4002C087B
:1037E200A5000A168A15FE240A168A1583120313E7
:1037F2002208AD002D08FA000A30F3000030F40070
:103802000A30A2000030A3002E08AB00AC012B0846
:10381200A4002C08A5000A168A15FE240A168A1589
:10382200831203132308F6002208F5000A168A15EC
:103832003B240A168A15730883120313AD002D0860
:10384200ED000A30F3000030F4002E08AB00AC01AA
:103852002B08F5002C08F6000A168A153B240A16D6
:103862008A15730883120313AD002D088316031300
:10387200DF00080083120313A101F61F412C422C22
:10388200492CF509F609F50A0319F60AA101A10A5C
:10389200F41F4C2C4D2C522CF309F409F30A031992
:1038A200F40A730874040319572C582C872CA001AE
:1038B200A00A662C01300310F30DF40DFF3E031D28
:1038C2005C2C0130F7007708A007F41F692C6A2CE2
:1038D2005B2C74087602031D702C73087502031C9E
:1038E200732C742C7A2C7308F5027408031CF603EB
:1038F200F60201300310F40CF30CFF3E031D7B2C87
:103902000130A002031D862C872C6A2C2108031982
:103912008B2C8C2C912CF509F609F50A0319F60A61
:103922007608F4007508F3000800003083120313D0
:10393200AB000030AA000030A9000030A800230824
:103942002204210420040319A72CA82CF52CAC0175
:10395200AC0AB82C0130F3000310A00DA10DA20D8A
:10396200A30DF30BAD2C0130F3007308AC07A31FBA
:10397200BB2CBC2CAB2C0130F3000310A80DA90DFD
:10398200AA0DAB0DF30BBE2C23082702031DD32C6B
:1039920022082602031DD32C21082502031DD32C45
:1039A20020082402031CD62CD72CE62C2008A402C3
:1039B2002108031C210FA5022208031C220FA602C4
:1039C2002308031C230FA702281401300310A30CA1
:1039D200A20CA10CA00CFF3E031DE72C0130AC028F
:1039E200031DF42CF52CBC2C2B08A3002A08A200E2
:1039F2002908A1002808A000080083120313A801C7
:103A0200A31F042D052D0C2DA209A309A20A031937
:103A1200A30AA801A80AA51F0F2D102D192DA4096C
:103A2200A509A40A0319A50A0130A6002608A806BA
:103A3200A901AA01220823040319202D212D582DA2
:103A4200A701A70A2F2D01300310A20DA30DFF3EDF
:103A5200031D252D0130A6002608A707A31F322D1E
:103A6200332D242D01300310A90DAA0DFF3E031D95
:103A7200342D23082502031D402D22082402031C95
:103A8200432D442D4B2D2208A4022308031CA50319
:103A9200A502291401300310A30CA20CFF3E031D42
:103AA2004C2D0130A702031D572D582D332D280808
:103AB20003195C2D5D2D622DA909AA09A90A031912
:103AC200AA0A2A08A3002908A200080003108312E8
:103AD20003135A0D5B0DDC005C08E2006208031D53
:103AE200732D742D7D2D0030DB000030DA000030A4
:103AF200D9000030D800E22D5808DC005908DD005A
:103B02005A08DE005B08DF001F300310DF0CDE0CFA
:103B1200DD0CDC0CFF3E031D862D5C08E000600816
:103B2200E100DA17FF30D805FF30D905FF30DA059A
:103B32000030DB059630E202E21FA02DA12DBB2D45
:103B42006208803A973E0318A72DA82DA92D742D3F
:103B520001300310DB0CDA0CD90CD80CFF3E031D2C
:103B6200AA2D0130DC005C08E207031DB92DBA2D35
:103B7200A92DD22D20306202031CC02DC12DCD2DC6
:103B8200742D0130DC000310D80DD90DDA0DDB0DD8
:103B9200DC0BC42D0130E2026208031DD12DD22DAF
:103BA200C22D61080319D62DD72DE22DD809D909C6
:103BB200DA09DB09D80A0319D90A0319DA0A03193F
:103BC200DB0A08000030831203132005F3000030E3
:103BD2002105F40080302205F5007F302305F60030
:103BE2007608750474047304031DF82DF92D012E53
:103BF2000030A3000030A2000030A1000030A0007D
:103C020000302405F30000302505F400803026053D
:103C1200F5007F302705F6007608750474047304F6
:103C2200031D142E152E1D2E0030A7000030A600F5
:103C32000030A5000030A400A31F202E212E452E07
:103C42000030F3000030F4000030F5008030F60060
:103C52002008F3022108031C210F302E312EF4021A
:103C62002208031C220F362E372EF5022308031CCE
:103C7200230F3C2E3D2EF6027608A3007508A20003
:103C82007408A1007308A000A71F482E492E6D2EAC
:103C92000030F3000030F4000030F5008030F60010
:103CA2002408F3022508031C250F582E592EF4026E
:103CB2002608031C260F5E2E5F2EF5022708031C22
:103CC200270F642E652EF6027608A7007508A60057
:103CD2007408A5007308A4008030A3068030A706EC
:103CE20027082302031D7F2E26082202031D7F2E92
:103CF20025082102031D7F2E240820020318822E8C
:103D0200832E852E0310862E0314080083120313BC
:103D1200A400240803198E2E8F2EA32EF61F922E96
:103D2200932EA32E7309A6007409A7007509A80093
:103D32007609A900A60A0319A70A0319A80A0319F2
:103D4200A90AAB2E7608A9007508A8007408A70076
:103D52007308A6007608750474047304031DB22E5A
:103D6200B32EBC2E0030F6000030F5000030F40017
:103D72000030F300422F9630A0002008A500CE2E7E
:103D82000130A0002008A50701300310A90CA80CDF
:103D9200A70CA60CFF3E031DC62EFE302905031DEF
:103DA200D32ED42EC12EF02E0130A0002008A5075C
:103DB2000130A607003003180130A70700300318AE
:103DC2000130A807003003180130A90701300310A1
:103DD200A90CA80CA70CA60CFF3E031DE82EFF3071
:103DE2002905031DF52EF62ED52E022F0130A50230
:103DF2000130A0000310A60DA70DA80DA90DA00B60
:103E0200FB2EA81B052F062F0C2F023025020318AC
:103E12000B2F0C2FF72E25180F2F102F182FFF30D6
:103E2200A605FF30A7057F30A805FF30A9050310BE
:103E3200A50C2508A000A101A201A30118300310BE
:103E4200A00DA10DA20DA30DFF3E031D202F2008E2
:103E5200A6042108A7042208A8042308A904240808
:103E62000319342F352F3A2FF61F382F392F3A2FB7
:103E7200A9172908F6002808F5002708F4002608E3
:103E8200F3000800831203132008F3002108F40052
:103E92002208F5000310740D750DF6007608AD00CA
:103EA2002D08031D552F562F5F2F0030A300003021
:103EB200A2000030A1000030A000FF2F2408F30070
:103EC2002508F4002608F5000310740D750DF600A0
:103ED2007608AC002C08031D6F2F702F712F562F00
:103EE200A117FF30A005FF30A1050030A205A517DC
:103EF200FF30A405FF30A5050030A6050030AB0059
:103F02000030AA000030A9000030A8007F30AD02C6
:103F120098302C07F3007308AD021830F3007308D1
:103F2200AC000130F3000310A80DA90DAA0DAB0DD2
:103F3200F30B942F26082202031DA52F2508210228
:103F4200031DA52F24082002031CA82FA92FB42F7C
:103F52002408A0022508031C250FA1022608031C21
:103F6200260AA202281401300310A00DA10DA20DF1
:103F7200FF3E031DB52F0130AC02031DC12FC22F1E
:103F8200922FAD1FC52FC62FE02F2D08803A973EE6
:103F92000318CC2FCD2FCE2F562F01300310AB0C90
:103FA200AA0CA90CA80CFF3E031DCF2F0130F30071
:103FB2007308AD07031DDE2FDF2FCE2FF72F18302A
:103FC2002D02031CE52FE62FF22F562F0130F300AE
:103FD2000310A80DA90DAA0DAB0DF30BE92F0130AB
:103FE200AD022D08031DF62FF72FE72F2B08A30094
:103FF2002A08A2002908A1002808A0000800FF3F03
:06400200FF3FFF3FFF3FFE
:04400E00D420FF3F7C
:00000001FF
